:020000040800F2
:1000000000800020890600085D0600085F060008E1
:10001000610600086306000865060008000000008D
:10002000000000000000000000000000670600085B
:1000300069060008000000006B0600086D06000855
:10004000D9060008D9060008D9060008D906000814
:10005000D9060008D9060008D9060008D906000804
:10006000D9060008D9060008D9060008D9060008F4
:10007000D9060008D9060008D9060008D9060008E4
:10008000D906000800000000D9060008D9060008BB
:10009000D9060008D9060008D9060008D9060008C4
:1000A000D9060008D9060008D9060008D9060008B4
:1000B000D9060008D9060008D9060008D9060008A4
:1000C000D9060008D9060008D906000875060008F8
:1000D000D9060008D9060008D9060008D906000884
:1000E000D9060008D9060008D9060008D906000874
:1000F000D9060008D9060008D9060008000000004B
:1001000000000000D906000800000000D906000821
:10011000D906000800000000D9060008D90600082A
:10012000D9060008D9060008D9060008D906000833
:10013000D90600080000000000000000D9060008F1
:10014000D9060008D90600080000000000000000E1
:10015000000000000000000000000000000000009F
:10016000000000000000000000000000D9060008A8
:10017000D906000800000000000000000000000098
:1001800000000000D9060008000000000000000088
:10019000000000000000000000000000000000005F
:1001A0000000000000000000D9060008D906000881
:1001B000D9060008D9060008D9060008000000008A
:1001C00000000000D9060008000000000000000048
:0801D000D9060008D906000859
:1001D8000348044B834202D0034B03B118477047CE
:1001E800440400204404002000000000054806499B
:1001F8000B1AD90F01EBA301491002D0034B03B12D
:100208001847704744040020440400200000000000
:1002180010B5064C237843B9FFF7DAFF044B13B146
:100228000448AFF300800123237010BD440400206C
:1002380000000000381D000808B5044B1BB1044934
:100248000448AFF30080BDE80840CFE70000000095
:1002580048040020381D0008002301461A461846A5
:1002680000F08CB838B5084B084D5B1B9C1007D0C4
:10027800043B1D44013C55F804399847002CF9D13A
:10028800BDE8384001F05ABD5C2500085825000833
:1002980070B50D4E0D4D761BB61006D0002455F8DE
:1002A800043B01349847A642F9D1094E094D761B03
:1002B80001F03EFDB61006D0002455F8043B013489
:1002C8009847A642F9D170BD50250008502500086E
:1002D8005825000850250008830730B548D0541E1B
:1002E800002A3FD0CAB2034601E0013C3AD303F8E2
:1002F800012B9D07F9D1032C2DD9CDB245EA05254F
:100308000F2C45EA054536D9A4F1100222F00F0C4E
:1003180003F1200EE6444FEA121C03F1100242E9F1
:10032800045542E9025510327245F8D10CF1010228
:1003380014F00C0F03EB021204F00F0C13D0ACF105
:10034800040323F003030433134442F8045B934289
:10035800FBD10CF003042CB1CAB21C4403F8012BE6
:100368009C42FBD130BD64461346002CF4D1F9E71A
:1003780003461446BFE71A46A446E0E770B4184C93
:100388002568D5F848411CB365681F2D25DC38B9A8
:10039800AB1C0135656044F82310002070BC704721
:1003A80004EB850C0228CCF88820D4F888614FF03B
:1003B800010202FA05F246EA0206C4F88861CCF89E
:1003C8000831E5D1D4F88C311343C4F88C31DFE718
:1003D80005F5A674C5F84841D6E74FF0FF30DDE7CC
:1003E800501D000870B588B0002403940494059447
:1003F800069407941E4BDA6C42F02002DA64DA6C39
:1004080002F020020092009ADA6C42F00102DA64EB
:10041800DA6C02F001020192019ADA6C42F00202EF
:10042800DA64DB6C03F002030293029B2246582134
:100438004FF0904000F046FB0E4D22461021284612
:1004480000F040FB58230393012604960594069474
:1004580003A94FF0904000F047FA10230393049645
:100468000594069403A9284600F03EFA08B070BD2A
:10047800001002400004004872B6FEE700B595B0CF
:100488003822002106A8FFF727FF002301930293D3
:100498000393049305934FF4007000F019FB0122B5
:1004A80006924FF48033079302230D9303210E9194
:1004B8000F921922109211931293139306A800F029
:1004C800C1FB70B90F230193032102910023039309
:1004D8000493059301A800F06DFE20B915B05DF8EE
:1004E80004FBFFF7C9FFFFF7C7FF000000B585B0A1
:1004F80000F018F9FFF7C2FFFFF774FF00F02EF8BD
:1005080001F062FB134B4FF6FF7202921F22019219
:100518005A6800921B68104A0021084601F06CFBDB
:100528004FF47A7000F020F9002001F0EBFB4FF453
:10053800784001F0E7FB4FF4FC6001F0E3FB1F207B
:1005480001F0E0FB002001F0DDFB4FF6FF7001F049
:10055800D9FBE9E73C040020541D000808B5104801
:10056800104B03604FF482734360002383604FF4A1
:10057800E062C260036143614FF400728261082245
:10058800C2610362436283620721C16203634263FB
:1005980001F021F800B908BDFFF76EFFFBE700BFC7
:1005A800600400200030014000B589B000230393A7
:1005B80004930593069307930268174B9A4202D057
:1005C80009B05DF804FB03F560431A6E42F48052EB
:1005D8001A661A6E02F480520192019ADA6C42F09D
:1005E8000102DA64DB6C03F001030293029BA0238F
:1005F8000393022304930523079303A94FF0904024
:1006080000F072F900221146232000F0D3F82320CD
:1006180000F008F9D4E700BF0030014000B583B00E
:100628000B4B1A6E42F001021A661A6E02F00102B2
:100638000092009A9A6D42F080529A659B6D03F081
:1006480080530193019B00F0C9FA03B05DF804FBE5
:1006580000100240FEE7FEE7FEE7FEE7FEE7704710
:100668007047704708B500F06DF808BD08B5024836
:1006780001F028F908BD00BF6004002070470000A1
:100688000D4885460D480E490E4A002302E0D4580D
:10069800C4500433C4188C42F9D30B4A0B4C0023C2
:1006A80001E013600432A242FBD3FFF7E7FFFFF734
:1006B800EFFDFFF71BFFFEE7008000200000002091
:1006C800440400205C25000844040020C8040020DD
:1006D800FEE70000104B1B680BB90120704710B5EE
:1006E80004464FF47A70B0FBF3F30C4A1068B0FB81
:1006F800F3F000F0A5F868B90F2C01D901200AE041
:10070800002221464FF0FF3000F054F8044B1C60E3
:10071800002000E0012010BD340400203004002037
:100728003804002010B5032000F032F80F20FFF73E
:10073800D1FF10B10124204610BD0446FFF76EFF1B
:10074800F9E70000034A1368034909680B4413607A
:10075800704700BFC404002034040020014B18680F
:10076800704700BFC404002038B50446FFF7F6FF01
:100778000546B4F1FF3F02D0044B1B681C44FFF749
:10078800EDFF401BA042FAD338BD00BF340400205F
:10079800074AD36823F4E0631B041B0C000200F42F
:1007A800E060034343F0BF6343F40033D360704712
:1007B80000ED00E000B5194BDB68C3F30223C3F179
:1007C800070CBCF1040F28BF4FF0040C03F1040E12
:1007D800BEF1060F18D9033B4FF0FF3E0EFA0CFC92
:1007E80021EA0C0199400EFA03F322EA03031943A4
:1007F80000280BDB0901C9B200F1604000F5614037
:1008080080F800135DF804FB0023E5E700F00F0013
:100818000901C9B2024B1954F4E700BF00ED00E02A
:1008280014ED00E0002807DB00F01F024009012357
:100838009340024A42F82030704700BF00E100E0D0
:100848000138B0F1807F0BD24FF0E0235861054AA0
:10085800F02182F823100020986107221A6170475E
:100868000120704700ED00E008B590F82530DBB2B4
:10087800022B09D00423C363012380F8253000220A
:1008880080F82420184608BD0268136823F00E0378
:1008980013600268136823F001031360826C136805
:1008A80023F480731360436C03F01F02016C01236F
:1008B80093404B60C36C026D5A60436D33B11A6844
:1008C80022F480721A60836DC26D5A60012380F829
:1008D8002530002380F82430836B13B1984700201B
:1008E800D1E70020CFE7000070B582B0002365E0B3
:1008F80085685E000324B44025EA0405CC68B4404A
:100908002C438460446824EA0C0C4C68C4F300143B
:100918009C4044EA0C04446061E0DD08083550F866
:10092800256003F007044FEA840C0F2404FA0CF442
:1009380026EA040E0C6904FA0CF444EA0E0440F8A2
:10094800254063E0052400E0002404FA0EF42C435B
:100958000CF1020C574D45F82C40574CA568D44370
:1009680025EA0206D1F804C01CF4801F01D042EA2F
:100978000506514DAE60ED6804EA0506D1F804C0DD
:100988001CF4001F01D042EA05064B4DEE606D686D
:1009980004EA0506D1F804C01CF4003F01D042EA7D
:1009A8000506454D6E602D682C404E6816F4803F54
:1009B80001D042EA0504404A146001330A6832FA59
:1009C80003F474D04FF0010C0CFA03FC1CEA020289
:1009D800F3D04C6804F00304013C012C88D94C681E
:1009E80004F00304032C0CD0C4685D004FF0030C22
:1009F8000CFA05FC24EA0C0C8C68AC4044EA0C04A4
:100A0800C4604C6804F00304022C86D004684FEAE2
:100A1800430E4FF0030C0CFA0EFC24EA0C0C4C6845
:100A280004F0030404FA0EF444EA0C0404604C686D
:100A380014F4403FC1D0214C256E45F001052566D0
:100A4800246E04F001040194019C4FEA930C0CF10C
:100A58000205184C54F8255003F003044FEA840E9D
:100A68000F2404FA0EF425EA0405B0F1904F3FF480
:100A78006BAF134CA04212D004F58064A04210D092
:100A880004F58064A0420ED004F58064A0420CD026
:100A980004F58064A0423FF455AF062455E70124CD
:100AA80053E7022451E703244FE704244DE702B03B
:100AB80070BD00BF0000014000040140001002406A
:100AC800000400480AB181617047816270470000E4
:100AD800002836D13E4B1B6803F4C063B3F5806F22
:100AE80008D03B4AD2F8803023F48073C2F88030B3
:100AF80000207047364AD2F8803023F48073C2F859
:100B08008030136823F4C06343F400731360314BDF
:100B18001B68322202FB03F32F4AA2FB03239B0C20
:100B2800013300E0013B2A4A526912F4806F01D078
:100B3800002BF7D1264B5B6913F4806F44D100205A
:100B48007047B0F5007F08D0214A136823F4C063CA
:100B580043F480631360002070471D4B1B6803F447
:100B6800C063B3F5806F08D0194AD2F8803043F4D7
:100B78008073C2F8803000207047154AD2F8803060
:100B880043F48073C2F88030136823F4C06343F4DD
:100B9800007313600F4B1B68322202FB03F30E4AEB
:100BA800A2FB03239B0C013300E0013B084A526976
:100BB80012F4806F01D0002BF7D1054B5B6913F459
:100BC800806F03D1002070470320704703207047CF
:100BD800007000403004002083DE1B43024A936803
:100BE80043F480439360704700700040124BDA680A
:100BF80002F00302D868C0F30310431C032A11D083
:100C08000E48B0FBF3F00C4BDB68C3F3062303FB81
:100C180000F0094BDB68C3F3416301335B00B0FBB1
:100C2800F3F070470648B0FBF3F0034BDB68C3F3FF
:100C3800062303FB00F0ECE7001002400024F40058
:100C480000127A00002800F0548270B582B0044681
:100C5800036813F0010F37D0A44A936803F00C031C
:100C6800D26802F003020C2B23D0082B23D0636830
:100C7800B3F5803F4ED0B3F5A02F51D09B4B1A68E7
:100C880022F480321A601A6822F480221A6063689B
:100C9800002B52D0FFF762FD0546944B1B6813F4F6
:100CA800003F11D1FFF75AFD401B6428F5D90320F6
:100CB80028E2032AD9D18D4B1B6813F4003F03D0D7
:100CC8006368002B00F01782236813F0020F5DD0D1
:100CD800864A936803F00C03D26802F003020C2BD7
:100CE8003AD0042B3AD0E368002B75D07F4A1368BA
:100CF80043F480731360FFF731FD05467B4B1B6897
:100D080013F4806F5FD1FFF729FD401B0228F5D946
:100D18000320F7E1754A136843F480331360B6E79C
:100D280003F18043A3F53C331A6842F480221A6029
:100D38001A6842F480321A60A9E7FFF70FFD0546EA
:100D48006A4B1B6813F4003FBED0FFF707FD401B3A
:100D58006428F5D90320D5E1022AC2D1634B1B6868
:100D680013F4806F03D0E368002B00F0C6815F4A5C
:100D7800536823F0FE43216943EA016353605C4BE7
:100D88001868FFF7A7FC002840F0B981236813F022
:100D9800080F4CD063699BB3544AD2F8943043F09F
:100DA8000103C2F89430FFF7D9FC05464F4BD3F83E
:100DB800943013F0020F3AD1FFF7D0FC401B022801
:100DC800F4D903209EE1494A536823F0FE43216980
:100DD80043EA01635360D9E7444A136823F48073F4
:100DE8001360FFF7BBFC0546404B1B6813F4806F8C
:100DF800CCD0FFF7B3FC401B0228F5D9032081E1D2
:100E08003A4AD2F8943023F00103C2F89430FFF73D
:100E1800A5FC0546354BD3F8943013F0020F06D0E5
:100E2800FFF79CFC401B0228F4D903206AE12368E1
:100E380013F0040F00F081802C4B9B6D13F0805F42
:100E480036D12A4B9A6D42F080529A659B6D03F019
:100E580080530193019B0125264B1B6813F4807F67
:100E680028D0A368012B39D0052B45D01F4BD3F8C8
:100E7800902022F00102C3F89020D3F8902022F0AD
:100E88000402C3F89020A368002B43D0FFF766FC48
:100E98000646164BD3F8903013F0020F4CD1FFF7EB
:100EA8005DFC801B41F288339842F2D9032029E186
:100EB8000025D1E70F4A136843F480731360FFF7E6
:100EC8004DFC06460B4B1B6813F4807FC9D1FFF716
:100ED80045FC801B0228F5D9032013E1034AD2F808
:100EE800903043F00103C2F89030CCE70010024084
:100EF80038040020007000408A4BD3F8902042F05C
:100F08000402C3F89020D3F8902042F00102C3F8FD
:100F18009020B8E7FFF722FC0646824BD3F89030C2
:100F280013F0020F08D0FFF719FC801B41F2883339
:100F38009842F2D90320E5E0E5B9236813F0200FC1
:100F480035D0A369E3B1774AD2F8983043F001036A
:100F5800C2F89830FFF702FC0546724BD3F8983078
:100F680013F0020F23D1FFF7F9FB401B0228F4D935
:100F78000320C7E06B4A936D23F080539365DCE749
:100F8800684AD2F8983023F00103C2F89830FFF786
:100F9800E5FB0546634BD3F8983013F0020F06D0F3
:100FA800FFF7DCFB401B0228F4D90320AAE0E36921
:100FB800002B00F0A6805B4A926802F00C020C2A13
:100FC80069D0022B1DD0574B1A6822F080721A6024
:100FD800DA6822F00302DA60DA6822F0887222F412
:100FE8008032DA60FFF7BAFB04464E4B1B6813F0F9
:100FF800007F4ED0FFF7B2FB001B0228F5D9032073
:1010080080E0484A136823F080731360FFF7A6FB5B
:101018000546444B1B6813F0007F06D0FFF79EFB84
:10102800401B0228F5D903206CE03E4AD3683E49AC
:101038001940236A606A013843EA0013A06A43EA48
:101048000023206B4008013843EA4053606B400896
:10105800013843EA4063E06A43EAC0630B43D36064
:10106800136843F080731360D36843F08073D360D0
:10107800FFF774FB04462B4B1B6813F0007F06D167
:10108800FFF76CFB001B0228F5D903203AE000208B
:1010980038E0002036E0012B36D0224BDB6803F025
:1010A8000301226A914231D103F0F002616A0139E9
:1010B800B2EB011F2CD103F4FE42A16AB2EB012F5F
:1010C80028D103F07842E16AB2EBC16F24D103F46E
:1010D800C001226B5208013AB1EB425F1ED103F006
:1010E800C063626B5208013AB3EB426F18D100201B
:1010F80008E001207047012004E0012002E00120FF
:1011080000E0002002B070BD0120FBE70120F9E7F4
:101118000120F7E70120F5E70120F3E70120F1E7D7
:101128000120EFE7001002400C809F011E4B9B68D6
:1011380003F00C03042B33D01B4B9B6803F00C0308
:10114800082B2FD0184B9B6803F00C030C2B01D0F5
:1011580000207047144BDA6802F00302D868C0F325
:101168000310431C032A11D01048B0FBF3F00E4BB8
:10117800DB68C3F3062303FB00F00B4BDB68C3F308
:10118800416301335B00B0FBF3F070470848B0FBE4
:10119800F3F0054BDB68C3F3062303FB00F0ECE731
:1011A8000248704702487047001002400024F400CB
:1011B80000127A00002800F0E680F8B50C460546D3
:1011C800744B1B6803F00F038B420BD2714A1368F0
:1011D80023F00F030B431360136803F00F038B42D4
:1011E80040F0D3802E6816F001065FD06B68032BA1
:1011F8002FD0022B4DD0684B1B6813F4806F00F082
:10120800C680FFF793FF654B98424DD9624A9368B1
:1012180023F0F00343F08003936080265E4A9368CE
:1012280023F0030369680B439360FFF797FA0746B7
:10123800594B9B6803F00C036A68B3EB820F35D0F7
:10124800FFF78CFAC01B41F288339842F0D903208B
:1012580078E0514B1B6813F0007F01D1012071E049
:10126800FFF7C4FC4D4B98421AD94B4B9B6813F0BF
:10127800F00F05D02E6816F00206CFD0AB688BB9F8
:10128800454A936823F0F00343F080039360802677
:10129800C4E7414B1B6813F4003FB2D1012051E071
:1012A8000026BBE70026B9E70026B7E72B6813F04E
:1012B800020F48D013F0040F04D0374A936843F460
:1012C800E06393602B6813F0080F06D0324A9368E6
:1012D80023F47C5343F4E06393602F4A936823F02C
:1012E800F003A9680B4393602A4B1B6803F00F03B4
:1012F800A34230D82B6813F0040F06D0264A93680F
:1013080023F4E063E9680B4393602B6813F0080F3C
:1013180007D0214A936823F46053296943EAC1033B
:101328009360FFF703FF1C4B9B68C3F303131C4A2E
:10133800D35C03F01F03D8401A4B18601A4B186887
:10134800FFF7C8F9F8BD802ECED1134A936823F071
:10135800F0039360C8E70F4A136823F00F03234391
:101368001360FFF7FBF906460A4B1B6803F00F03EF
:10137800A342BFD0FFF7F2F9801B41F288339842AD
:10138800F2D90320DEE7012070470120DAE70120C7
:10139800D8E700BF002002400010024000B4C40497
:1013A8005C1D000830040020380400202DE9F047B7
:1013B80082B00546884617461E46FFF7CFF90A9BB6
:1013C8001B1A03EB0609FFF7C9F982462B4B1B686A
:1013D800C3F3CB3309FB03F301932B689C6838EA0A
:1013E80004030CBF4FF0010C4FF0000CBC4540D07B
:1013F800B6F1FF3FF1D0FFF7B1F9A0EB0A0048457D
:101408000AD2B9F1000F07D0019A02B14A46019BEE
:10141800013B01939146E0E72A68536823F0E00313
:1014280053606B68B3F5827F0BD0AB6AB3F5005F8E
:1014380014D0012385F85D30002385F85C30032043
:1014480018E0AB68B3F5004F02D0B3F5806FECD16C
:101458002A68136823F040031360E6E72A681368D4
:1014680023F4005313602A68136843F4005313608D
:10147800DFE7002002B0BDE8F08700BF300400209D
:101488002DE9F04782B006460C4615461F46002354
:101498008DF80330FFF762F90A9B1B1A03EB070864
:1014A800FFF75CF98146D6F800A0314B1B6803EBC7
:1014B8008303C3EBC3031B0D08FB03F3019302E093
:1014C800B7F1FF3F12D133689B6803EA040CAC45BF
:1014D8004AD0B4F5C06FF3D1002DF1D19AF80C3091
:1014E800DBB28DF803309DF80330E9E7FFF736F9F2
:1014F800A0EB090040450AD2B8F1000F07D0019AC5
:1015080002B14246019B013B01939046DBE73268FA
:10151800536823F0E00353607368B3F5827F0BD000
:10152800B36AB3F5005F14D0012386F85D30002359
:1015380086F85C30032018E0B368B3F5004F02D09A
:10154800B3F5806FECD13268136823F04003136061
:10155800E6E73268136823F40053136032681368AF
:1015680043F400531360DFE7002002B0BDE8F087C2
:101578003004002070B582B004460D46164600922D
:101588000B4600224FF4C051FFF77AFFB0B900961E
:101598002B46002280212046FFF708FFA8B90096B5
:1015A8002B4600224FF4C0612046FFF769FF50B177
:1015B800236E43F020032366032004E0236E43F0E8
:1015C80020032366032002B070BD236E43F020037E
:1015D80023660320F7E700286FD010B50446436A56
:1015E80033B94368B3F5827F05D00023C36102E0B5
:1015F8000023036143610023A36294F85D30002B4C
:1016080052D0022384F85D302268136823F0400327
:101618001360E368B3F5E06F4CD90022B3F5706F3F
:1016280004D0B3F5E06F01D00023A362636803F42C
:101638008273A16801F404410B43216901F002019E
:101648000B43616901F001010B43A16901F40071C9
:101658000B43E16901F038010B43216A01F0800175
:101668000B43A16A01F4005120680B430360638BAC
:1016780003F00403616A01F010010B43616B01F090
:1016880008010B43E16801F470610B4321681343BF
:101698004B602268D36923F40063D361002020667D
:1016A800012384F85D3010BD84F85C302046FEF7D5
:1016B8007BFFA6E74FF48052B0E7012070472DE981
:1016C800F04383B01D4690F85C30012B00F0F680A3
:1016D800044688469146012380F85C30FFF73EF8BF
:1016E800074694F85D60F6B2012E40F0D480B8F158
:1016F800000F00F0D180B9F1000F00F0CD80032376
:1017080084F85D3000232366C4F83880A4F83C9040
:10171800A4F83E902364A4F84430A4F84630236526
:10172800E364A368B3F5004F1ED023681A6812F06B
:10173800400F03D11A6842F040021A60E368B3F51B
:10174800E06F42D9636813B1B9F1010F23D1A26BDD
:1017580023681288DA60A36B0233A363E38F9BB21A
:10176800013B9BB2E38716E02268136823F040032D
:1017780013602268136843F480431360D5E7FEF7CB
:10178800EDFFC01BA84203D3B5F1FF3F40F08E80A8
:10179800002D00F08D80E38F9BB2002B66D023686C
:1017A8009A6812F0020FEAD0A26B1288DA60A36B73
:1017B8000233A363B4F83EC01FFA8CFC0CF1FF3C63
:1017C8001FFA8CFCA4F83EC0E5E7636813B1B9F1D1
:1017D800010F33D1E38F9BB2012B0CD9A26B236885
:1017E8001288DA60A36B0233A363E38F9BB2023BD8
:1017F8009BB2E38722E0A26B236812781A73A36B6B
:101808000133A363E38F9BB2013B9BB2E38715E0EF
:10181800A36B1B781373A36B0133A363E38F9BB292
:10182800013B9BB2E38709E0FEF798FFC01BA84283
:1018380002D3B5F1FF3F3DD1002D3DD0E38F9BB2E0
:10184800A3B12268936813F0020FEDD0E38F9BB227
:10185800012BDDD9A36B1B88D360A36B0233A36371
:10186800E38F9BB2023B9BB2E387E7E73A46294600
:101878002046FFF77FFE08B120232366A36833B90B
:1018880001932368DA6801929B680193019B236E98
:1018980013B9002600E00226012384F85D300023F6
:1018A80084F85C30304603B0BDE8F0830326F3E7E4
:1018B8000326F1E70326EFE70326EDE70226F1E723
:1018C8007047000030B585B00446026851689368D7
:1018D800C3F3801013F0400F05D113F0010F02D0AD
:1018E80011F0400F69D113F0020F02D011F0800FF0
:1018F80067D1C3F3401513F0200F03D110B913F4C7
:10190800807F61D011F0200F5ED078B194F85D002F
:10191800C0B203285AD0206E40F004002066002090
:101928000090D068009090680090009865B1206E93
:1019380040F0010020660020029090680290106834
:1019480020F040001060029A13F4807F09D0236EC3
:1019580043F0080323660023039323689B680393DB
:10196800039B236E002B2FD02268536823F0E003DB
:101978005360012384F85D3011F0030F2ED02268E4
:10198800536823F003035360A36D4BB1154A9A6360
:10199800A06DFEF769FF18B1236E43F0400323667C
:1019A800636D8BB10F4A9A63606DFEF75DFF58B1A6
:1019B800236E43F04003236606E0E36C2046984715
:1019C80002E0236D2046984705B030BD00230193FF
:1019D800D368019393680193019BF5E72046FFF7CD
:1019E8006FFFF1E7F119000808B5806A0023A0F835
:1019F8004630C387FFF764FF08BD08B500221021F1
:101A08004FF09040FFF75EF808BD08B5002240216E
:101A18004FF09040FFF756F80520FEF7A5FE01228B
:101A280040214FF09040FFF74DF808BD00B583B056
:101A38008DF80700002208214FF09040FFF742F888
:101A48004FF0FF3301220DF107010348FFF737FE7E
:101A580003B05DF804FB00BF6004002038B50446FD
:101A68000D46012208214FF09040FFF72BF84FF068
:101A7800FF33AAB221460248FFF721FE38BD00BF56
:101A880060040020F8B5064616F8012B09E039462F
:101A98002046FFF7E3FF3C440FE0FEF765FE2A46C9
:101AA8002646531EDDB292B1344614F8020BFFF7F6
:101AB800BDFF767816F07F07E9D116F0800FEED0DB
:101AC80014F8010BFF28E8D14FF4FA70E5E7F8BDE8
:101AD800F0B583B007460D4616461C462A20FFF788
:101AE800A5FF00238DF804308DF805708DF80630B9
:101AF8008DF8076004210DEB0100FFF7AFFF2B20E5
:101B0800FFF794FF8DF805508DF8074004210DEB81
:101B18000100FFF7A3FF2C20FFF788FF03B0F0BDFB
:101B280082B02DE9F04F83B093460D93BDF83C8009
:101B3800BDF84070C0B2C9B29DF834504219D2B253
:101B48009DF835A001EB0A03DBB2013B013ADBB299
:101B5800D2B2FFF7BDFF4FF000091DE03B0A8DF838
:101B680004308DF80570022101A8FFF777FF0134D2
:101B7800A5420FD906FA04F313F4004FEED04FEA4A
:101B880018238DF804308DF80580022101A8FFF78D
:101B980065FFECE709F10109CA4508D9ABF1200353
:101BA8000AFB03930E9A32F813600024E0E703B0AF
:101BB800BDE8F04F02B0704708B5012210214FF080
:101BC8009040FEF77FFF08BD08B5FFF716FFFFF747
:101BD8001CFF0648FFF756FF0548FFF753FF054867
:101BE800FFF750FFFFF7E8FF08BD00BFD824000843
:101BF800142500082425000882B02DE9F04385B09B
:101C080006460D4617460D93BDF83C90BDF840803A
:101C1800FFF7F3FE10E0013700260DE0CDF808804D
:101C2800CDF804900E9B00930D9B29463046FFF794
:101C380077FF3444A6B201373A787AB19DF8344038
:101C480033199F2BEADD9DF835301D44ADB22B4486
:101C58007F2B03DC202ADED00026DFE7FFF7ACFF6E
:101C680005B0BDE8F04302B0704700002DE9F0412F
:101C780082B0BDF820709F283ED880460C46164694
:101C88001D467F2938D88318A02B02DDC0F1A00695
:101C9800B6B26319802B02DDC4F18005ADB2FFF73F
:101CA800ACFE5FFA88F0E1B28219D2B24B19DBB20E
:101CB800013B013ADBB2D2B2FFF70AFF3B0A8DF8CB
:101CC80004308DF80570012208214FF09040FEF78E
:101CD800F9FE0CE04FF0FF33022201A90848FFF794
:101CE800EEFC013CA4B2002CF4D1013DADB20DB123
:101CF8003446F8E7FFF760FF02B0BDE8F08100BFA7
:101D08006004002000B583B000908023A022002149
:101D18000846FFF7ABFF03B05DF804FB024B13B1B5
:101D28000248FEF799BA7047000000006D020008EB
:101D3800F8B500BFF8BC08BC9E467047F8B500BFB0
:081D4800F8BC08BC9E46704780
:101D5000080000207465737400000000000000009B
:101D6000000000000102030406070809000000004B
:101D70000000000000000000000000000000000063
:101D800000100010001000100010001000000010E3
:101D900000000000002800280028000000000000CB
:101DA000000000000000000000240024007C00244B
:101DB0000048007C00480048000000000038005443
:101DC0000050003800140054005400380010000087
:101DD000002000540058003000280054001400086F
:101DE0000000000000100028002800100034004807
:101DF0000048003400000000001000100010000037
:101E000000000000000000000000000000080010BA
:101E100000200020002000200020002000100008EA
:101E20000020001000080008000800080008000852
:101E300000100020001000380010002800000000F2
:101E40000000000000000000000000000010001072
:101E5000007C0010001000000000000000000000E6
:101E60000000000000000000000000100010001042
:101E7000000000000000000000000038000000002A
:101E80000000000000000000000000000000000052
:101E90000000001000000000000800080010001002
:101EA0000010001000200020000000000038004456
:101EB0000044005400440044004400380000000086
:101EC0000010003000500010001000100010001032
:101ED0000000000000380044004400040008001026
:101EE0000020007C000000000038004400040018BE
:101EF000000400040044003800000000000800183E
:101F0000002800280048007C0008000800000000AD
:101F1000007C0040004000780004000400440038C9
:101F200000000000003800440040007800440044F5
:101F30000044003800000000007C0004000800108D
:101F400000100020002000200000000000380044A5
:101F50000044003800440044004400380000000001
:101F60000038004400440044003C000400440038B1
:101F70000000000000000000001000000000000051
:101F80000000001000000000000000000000001031
:101F90000000000000000010001000100000000011
:101FA000000C003000400030000C00000000000079
:101FB000000000000000007C0000007C0000000029
:101FC000000000000000000000600018000400187D
:101FD0000060000000000000003800440004000819
:101FE0000010001000000010000000000038004445
:101FF000004C0054005C004000400038000000002D
:1020000000100028002800280028007C004400441C
:1020100000000000007800440044007800440044C0
:1020200000440078000000000038004400400040F8
:1020300000400040004400380000000000700048EC
:1020400000440044004400440048007000000000C8
:10205000007C00400040007C004000400040007CCC
:1020600000000000007C004000400078004000407C
:1020700000400040000000000038004400400040E4
:10208000005C0044004400380000000000440044AC
:102090000044007C00440044004400440000000070
:1020A0000038001000100010001000100010003860
:1020B0000000000000040004000400040004000408
:1020C0000044003800000000004400480050006058
:1020D000005000480048004400000000004000405C
:1020E00000400040004000400040007C0000000034
:1020F0000044006C006C0054004400440044004460
:102100000000000000440064006400540054004CCF
:10211000004C00440000000000380044004400442B
:1021200000440044004400380000000000780044EF
:1021300000440044007800400040004000000000DF
:102140000038004400440044004400440054003877
:102150000004000000780044004400440078004877
:1021600000480044000000000038004400400030F7
:10217000000800040044003800000000007C00104B
:1021800000100010001000100010001000000000EF
:10219000004400440044004400440044004400382B
:1021A00000000000004400440044002800280028EB
:1021B00000100010000000000044004400540054CF
:1021C0000054006C00280028000000000044002893
:1021D0000028001000100028002800440000000023
:1021E00000440044002800280010001000100010D7
:1021F00000000000007C0004000800100010002017
:102200000040007C000000000018001000100010CA
:102210000010001000100010001000180020002016
:10222000001000100010001000080008000000005E
:1022300000300010001000100010001000100010FE
:1022400000100030001000280028004400000000AA
:10225000000000000000000000000000000000007E
:102260000000000000000000000000FE0020001040
:10227000000000000000000000000000000000005E
:102280000000000000380044003C0044004C0034D2
:10229000000000000040004000580064004400447A
:1022A00000640058000000000000000000380044F6
:1022B000004000400044003800000000000400041A
:1022C0000034004C00440044004C00340000000086
:1022D0000000000000380044007C0040004400384A
:1022E00000000000000C0010007C00100010001026
:1022F0000010001000000000000000000034004C3E
:1023000000440044004C00340004007800400040C9
:1023100000580064004400440044004400000000F1
:1023200000100000007000100010001000100010DD
:1023300000000000001000000070001000100010ED
:1023400000100010001000E0004000400048005065
:1023500000600050004800440000000000700010C1
:10236000001000100010001000100010000000000D
:102370000000000000780054005400540054005441
:102380000000000000000000005800640044004409
:102390000044004400000000000000000038004439
:1023A0000044004400440038000000000000000029
:1023B000005800640044004400640058004000409D
:1023C000000000000034004C00440044004C003485
:1023D00000040004000000000058006400400040B9
:1023E00000400040000000000000000000380044F1
:1023F00000300008004400380000000000200020E9
:1024000000780020002000200020001800000000BC
:10241000000000000044004400440044004C00342C
:1024200000000000000000000044004400280028D4
:1024300000280010000000000000000000540054BC
:102440000054006C0028002800000000000000007C
:102450000044002800100010002800440000000084
:102460000000000000440044002800280010001074
:102470000010006000000000007C00080010002038
:102480000040007C00000000001800100010001048
:102490000020002000100010001000180010001094
:1024A00000100010001000100010001000100010AC
:1024B000003000100010001000080008001000108C
:1024C000001000300000000000000074004C00000C
:1024D00000000000000000000F0180961180FFB195
:1024E00003012C2DB203012C2DB306012C2D012C40
:1024F0002DB40107C003A20284C101C5C2020A00B3
:10250000C3028A2AC4028AEEC5010E20003601A049
:102510003A010500022A040000007F2B040000009D
:102520007F00000004E010021C07123732292D2919
:10253000252B3900010310E110031D07062E2C295D
:102540002D2E2E373F0000021013800A29806400D0
:08255000251D000841020008EE
:04255800190200085C
:10255C00080000200000000000000000F402002031
:10256C005C030020C40300200000000000000000F9
:10257C00000000000000000000000000000000004F
:10258C00000000000000000000000000000000003F
:10259C00000000000000000000000000000000002F
:1025AC00000000000000000000000000000000001F
:1025BC00000000000000000000000000000000000F
:1025CC0000000000000000000000000000000000FF
:1025DC0000000000000000000000000000000000EF
:1025EC0000000000000000000000000000000000DF
:1025FC0000000000000000000000000000000000CF
:10260C0001000000000000000E33CDAB34126DE66B
:10261C00ECDE05000B0000000000000000000000D4
:10262C00000000000000000000000000000000009E
:10263C00000000000000000000000000000000008E
:10264C00000000000000000000000000000000007E
:10265C00000000000000000000000000000000006E
:10298C000024F4000100000010000000070A000001
:04299C006C1D0008A6
:040000050800068960
:00000001FF
